:100000000C945D000C94C8010C947A000C947A0056
:100010000C947A000C947A000C947A000C947A0078
:100020000C947A000C947A000C947A000C947A0068
:100030000C947A000C947A000C947A000C947A0058
:100040000C947A000C947A000C947A000C947A0048
:100050000C947A000C947A000C947A000C947A0038
:100060000C947A000C947A000902120001010080BD
:100070003209040000000000000012011001FF001E
:100080000008C016DC050401010200010E03550042
:10009000530042006100730070001C03770077007A
:1000A00077002E00660069007300630068006C0032
:1000B0002E00640065000403090411241FBECFEF65
:1000C000D8E0DEBFCDBF11E0A0E0B1E0E8E1F2E1B1
:1000D00002C005900D92A230B107D9F721E0A2E04D
:1000E000B1E001C01D92AA34B207E1F70E94F808FE
:1000F0000C940A090C940000CF93DF9360912801BF
:10010000635067FD14C0209125018CE090E0821BB4
:100110009109EC01C45DDE4F809124018D3209F418
:1001200057C08091020187FD9AC0109228018091EA
:10013000010184FF40C0609100016F3F09F43BC0A2
:10014000693008F46DC06850609300019091180107
:1001500088E889278093180168E08091020187FD73
:100160001CC0209126013091270186FF6FC0A9E1B4
:10017000B1E0F901962F84918D9331969150D9F782
:100180008FEF860F90E00196280F391F30932701DB
:1001900020932601C4E0C60F4EC089E191E00E9481
:1001A0009D07682F893008F4A2C08FEF809300016B
:1001B000CEE1C093010194E189B1847131F4915091
:1001C000D9F71092290110922301DF91CF91089560
:1001D000683009F0AACF83EC809318018AE58093F8
:1001E0000101109202018881807609F043C08A8162
:1001F000109221019981911149C01092220121E2AE
:1002000031E082E030932701209326019F819111F4
:1002100004C09E81981708F4892F8093000185CF30
:10022000109200019091180188E8892780931801A5
:10023000611193CFC4E089E191E00E94C401CC3008
:1002400009F4B7CF8FEF80930001B3CFD901E9E173
:10025000F1E0962F8D9181939150E1F791CFCE01EE
:100260000E9420088F3F09F1882309F45ECF109285
:1002700000015BCFCE010E94CF058F3F39F69881F8
:1002800097FD1DC090E890930201C7CF953089F08B
:10029000963009F19830D9F0993099F081E09A3090
:1002A00009F080E021E231E0ADCF8EE180930101E1
:1002B0003CCF8093290121E231E080E0A3CF8E8101
:1002C000E1CF80932B0121E231E080E09BCF2BE254
:1002D00031E081E097CF9B819130F1F09230A1F035
:1002E000933041F080E090E4909302018FCFC4E01E
:1002F000C80FA1CF811118C086EB90E09093270121
:100300008093260184E0EFCF88E690E09093270168
:100310008093260182E1E7CF8AE790E0909327015E
:100320008093260182E1DFCF813051F08230D1F617
:100330008CE890E090932701809326018EE0D3CF44
:100340008AE990E090932701809326018CE1CBCF3E
:10035000E9E6F0E0808183608083E89A0895A82F21
:10036000B92F80E090E041E050EA609530E009C0AC
:100370002D9182279795879510F084279527305ED9
:10038000C8F36F5FA8F30895EADF8D939D930895F6
:10039000CF93CFB7CF93DF93C3954C9BE9F74C9B9B
:1003A0000BC04C9B09C04C9B07C04C9B05C04C9B91
:1003B00003C04C9B01C089C06F93C0912501DD270C
:1003C000C45DDE4F2F9365E54C9B03C02F916F9169
:1003D000E6CF0F931F934F9320E040E15F9309B165
:1003E000047104FB27F93F9350E03BE039C01471DE
:1003F00040642F77012F5F5F1EC0406819B11471F0
:100400002F7752501FC0406409B12F770471D1F18A
:100410005F5F00C023C0406219B12F77147191F162
:100420005F5F00C025C004711027515012F45D5F5A
:100430000000115027952C3F19B1C8F614710127FF
:10044000015027952C3FC8F64227499309B1047102
:1004500010274F73115027952C3FA8F646954695C7
:1004600019B1147179F00127015027952C3F98F6A6
:100470006B5A60F3315009B1B0F600C011E01CBBFB
:10048000002717C03B503195C31BD04011E01CBB67
:100490000881033CF9F00B34E9F020912301198124
:1004A000110F1213EDCF093651F10D3211F0013E4B
:1004B00039F700932A013F915F914F911F910F915E
:1004C0002F916F91CCB3C0FD67CFDF91CF91CFBF9C
:1004D000CF91189520912A01222369F310912801C8
:1004E000112339F534303AF1309328012093240157
:1004F000109125013BE0311B309325011CC0009178
:1005000028010130B4F40AE53091010134FD14C032
:1005100000930101C8E1D1E013C0052710E000C03D
:1005200000000BB91AC0052710E0221F1DC010E003
:1005300021C04AE502C032ED432FC4E1D0E032E0F1
:100540001AB114615C9A0BB11AB954E120E865E361
:1005500020FF05270BB9279517951C3FF0F66695E8
:10056000B8F7B1F720FF05270BB9279517951C3F62
:10057000D0F62795179517FF052700001C3F0BB9EC
:10058000B0F629913A9519F70B7E10912901110FB8
:10059000C651D0400BB911F01093230111E01CBBE0
:1005A00000611AB11B7E402F4B7E54E05A95F1F743
:1005B0000BB91AB94BB97FCF582F48E080E057FDEF
:1005C00018C02B98550F880F1C998F5F2D9A36B540
:1005D0002091470196B5931B9217E0F32D9836B5FD
:1005E0002091470196B5931B9217E0F3415039F7DC
:1005F00008952B9AE7CF8EBD0DB407FEFDCF8EB5C3
:100600000895DC01CB0121E1B695A79597958795D3
:100610002A95D1F7209146012817D9F080934601F9
:10062000E0914301F09144018DE40995E09143018B
:10063000F091440180E00995E0914301F09144017B
:10064000809146010995E0914301F091440180E0D9
:1006500009940895809145018CBD809142018DBD22
:1006600008958823A1F08830D0F52CED32E0309346
:100670004401209343018430F1F008F18630C1F049
:1006800030F18730A1F483E08093470108958BEF28
:1006900092E0909344018093430181E0809347016D
:1006A00082E58093450181E080934201089580ECCA
:1006B00080934701089588E180934701089582302F
:1006C00051F08330A1F780E38093470108958CE0D7
:1006D00080934701089580E68093470108952BEFAA
:1006E00032E030934401209343011092420191E0A3
:1006F00090934701893059F070F08B3021F08C30A5
:1007000079F69093420181E580934501089582E551
:10071000809345010895883019F683E5809345015B
:10072000089526B59091470186B5821B8917E0F39D
:10073000089584B18C6284B92A982D9826B5909139
:10074000470186B5821B8917E0F32A9A26B5909156
:10075000470186B5821B8917E0F32A9880914301EF
:10076000909144018B5F924019F0109246010895D8
:10077000809145018CBD809142018DBD1092460152
:10078000089584B1837D84B985B1837D85B91CBC0E
:100790000895CF93DF93C0E2E0914301F0914401CB
:1007A0008CEA0995E0914301F091440183E50995B4
:1007B000E0914301F091440180E00995D82FE09148
:1007C0004301F091440180E00995D33561F11CBCEF
:1007D00026B59091470186B5821B8917E0F32A9AC6
:1007E00026B59091470186B5821B8917E0F32A98B8
:1007F00026B59091470186B5821B8917E0F3809159
:100800004301909144018B5F924031F0C15021F639
:1008100081E0DF91CF910895809145018CBD809159
:1008200042018DBDF3CF80E0DF91CF910895CF924B
:10083000DF92EF92FF926B017C010E9401038C2DED
:100840008170880F880F880FE0914301F091440177
:1008500080620995D701C60129E0B695A7959795BD
:1008600087952A95D1F7E0914301F09144010995CC
:10087000D701C601B695A79597958795E091430155
:10088000F09144010995E0914301F091440180E029
:10089000FF90EF90DF90CF900994CF92DF92EF928C
:1008A000FF920F931F93CF93DF931F92CDB7DEB7C5
:1008B0006B017C01142F29830E9401039C2D9170F0
:1008C000892F880F880F880FE0914301F091440130
:1008D00080640995D701C60129E0B695A79597953B
:1008E00087952A95D1F7E0914301F091440109954C
:1008F000D701C601B695A79597958795E0914301D5
:10090000F09144010995E0914301F0914401812F58
:10091000099529812223B9F01F3791F006B51EE110
:10092000C701B6010E9417048F3769F486B5801B92
:10093000813510F006B511501111F2CF81E004C0DD
:100940008FE00E945A0580E00F90DF91CF911F91B8
:100950000F91FF90EF90DF90CF900895CF92DF92AC
:10096000EF92FF920F931F93CF93DF931F92CDB718
:10097000DEB76B017C0149830E940103E0914301D2
:10098000F09144018CE40995D701C60129E0B695A0
:10099000A795979587952A95D1F7E0914301F09116
:1009A00044010995D701C601B695A79597958795F6
:1009B000E0914301F09144010995E0914301F091E8
:1009C000440180E0099549814F3FE9F006B51EE1F9
:1009D000C701B6010E9417048F3F99F486B5801BAA
:1009E000813510F006B511501111F2CF81E00F9052
:1009F000DF91CF911F910F91FF90EF90DF90CF90FB
:100A0000089580E0F4CF8FE00E945A0580E0EFCF98
:100A10001F93CF93DF931F92CDB7DEB7182FE091CE
:100A20004301F091440180EA99830995E0914301E3
:100A3000F09144019981892F0995E0914301F0914A
:100A40004401812F0995E0914301F091440180E038
:100A50000F90DF91CF911F9109941F93CF93DF9354
:100A600000D0CDB7DEB7182FE0914301F0914401DB
:100A700080EC6A8399830995E0914301F0914401E8
:100A80009981892F0995E0914301F0914401812FCB
:100A90000995E0914301F09144016A81862F0995FF
:100AA0008EE10E945A0580E00F900F90DF91CF9168
:100AB0001F910895882349F030E026B596B5921B22
:100AC0009035E0F33F5F3813F8CF0895259A2398C7
:100AD0002B9A50E217D05A95E9F70895AC0188E6B1
:100AE00005D0842F03D089E601D0852F0FD028E0D0
:100AF00030E0382780FB869506D02A95D1F730FB69
:100B000002D000D0689423982B9A16F02B98239A41
:100B1000E0914801F09149013197F0F72D9AE3B146
:100B2000E3FBE0914801F09149013197F0F72D98EE
:100B3000089520ECE7DF46F42A95E1F780E02AE10A
:100B4000E5DF2A95E9F7DECF28E030E0DBDF8695A8
:100B500087F938272A95D1F7D5DF27F9322772F39D
:100B6000D1DFD0CFDB01742FB9DF84E2BFDFE1DF5B
:100B70008D937A95D1F70895DB01742FAFDF83EF62
:100B8000B5DF8DE1B3DF84E6B1DF8D91AFDF82E7C2
:100B9000ADDFCFDF8078D9F77A9589F70895CF93C5
:100BA000DF93EC019981913089F1923009F4B3C05F
:100BB000933009F465C09430B1F1973009F486C0E0
:100BC000953009F412C1963009F4AAC0983009F49E
:100BD000E1C0993009F40FC19A3009F43EC19B304D
:100BE00009F46EC19C3009F483C19D3009F49AC1A7
:100BF0009E3009F49DC19F3009F40EC1903109F473
:100C000033C19F3709F451C180E031C0329B5AC0D3
:100C100080910E010E94310310920D0141980E94B3
:100C2000990380E024C080910D01811112C08B8155
:100C300090E0982F88272A81822B092E000CAA0B7E
:100C4000BB0B8093090190930A01A0930B01B09311
:100C50000C018F8190E0982F88272E81822B909312
:100C600008018093070182E080930F018FEF20E15C
:100C700031E03093270120932601DF91CF91089531
:100C8000E0914301F09144018A810995809310011C
:100C9000E0914301F09144018B810995809311010A
:100CA000E0914301F09144018C81099580931201F8
:100CB000E0914301F09144018D81099580931301E6
:100CC00084E0D5CF85E00E943103A6CF80910D014D
:100CD000811112C08B8190E0982F88272A81822B66
:100CE000092E000CAA0BBB0B8093090190930A01FB
:100CF000A0930B01B0930C018F8190E0982F88276F
:100D00002E81822B909308018093070183E08093CA
:100D10000F018FEFACCF0E94C103419A80E0A7CFB3
:100D200080910D01811112C08B8190E0982F88274E
:100D30002A81822B092E000CAA0BBB0B8093090180
:100D400090930A01A0930B01B0930C013C812D817B
:100D5000822F8F7080930401822F807F40E1849FD7
:100D6000C0011124830F911D90930601809305010A
:100D700020FD809303018F8190E0982F88272E819A
:100D8000822B909308018093070181E080930F01EB
:100D90008FEF6DCF80910D01811112C08B8190E09A
:100DA000982F88272A81822B092E000CAA0BBB0BB7
:100DB0008093090190930A01A0930B01B0930C0159
:100DC0001092060110920501109204018F8190E0AB
:100DD000982F88272E81822B9093080180930701FA
:100DE00084E080930F018FEF42CF0E94C90380936C
:100DF000100181E03CCF81E080930D018A819B81CD
:100E0000AC81BD818093090190930A01A0930B01ED
:100E1000B0930C0180E02BCF8B8190E0982F882736
:100E20002A81822B092E000CAA0BBB0B809309018F
:100E300090930A01A0930B01B0930C018F8190E075
:100E4000982F88272E81822B909308018093070189
:100E500085E080930F018FEF0ACF8A8180930E0186
:100E60001092100181E003CF8B8190E0982F8827AA
:100E70002A81822B092E000CAA0BBB0B809309013F
:100E800090930A01A0930B01B0930C018F8190E025
:100E9000982F88272E81822B909308018093070139
:100EA00086E080930F018FEFE2CE81E08093100106
:100EB00010921101109212011092130184E0D7CE0A
:100EC0008B8190E0982F88272A81822B909349016B
:100ED000809348012A9A229A83E00E945A052A9810
:100EE000419880E10E945A050E94660580E0BFCECD
:100EF00080EC0E94760580E00E9476058AE00E94E0
:100F00005A052A9A85E00E945A052A9885E00E948F
:100F10005A0584B1837D84B985B1837D85B9419AB1
:100F200080E0A5CE0E9499058093100181E09FCEBC
:100F30008A810E94760580E09ACEFF920F931F93DC
:100F4000CF93DF93582F792FF62E20910F013EEF8C
:100F5000320F323050F0253009F454C08FEFDF915A
:100F6000CF911F910F91FF900895662309F441C01E
:100F70008091090190910A01A0910B01B0910C019F
:100F8000052F172F3FEF360FE801C30FD11D1EC0ED
:100F90000E940805F80180838091090190910A015F
:100FA000A0910B01B0910C010196A11DB11D809380
:100FB000090190930A01A0930B01B0930C010C1747
:100FC0001D0769F020910F010F5F1F4F223001F7BD
:100FD000BC01CD010E941704F8018083DDCFF7E04A
:100FE000FF1538F48F2DDF91CF911F910F91FF9056
:100FF000089510920F018F2DDF91CF911F910F91C6
:10100000FF900895462F682F8091090190910A0161
:101010000E94B2058091090190910A01A0910B01F3
:10102000B0910C018F0D911DA11DB11D809309017F
:1010300090930A01A0930B01B0930C018F2D8FCFD9
:10104000FF920F931F93CF93DF93382F792F162F93
:1010500020910F01213061F0243051F0263009F445
:1010600099C08FEFDF91CF911F910F91FF9008955D
:10107000112309F487C08091090190910A01A09180
:101080000B01B0910C01C32FD72F1150AE01410FAE
:10109000511D8A01F12C4FC02091050130910601AC
:1010A000232B09F052C021E04881BC01CD010E94F0
:1010B0004D042091070130910801215031093093EE
:1010C000080120930701232BE9F410920F0180916E
:1010D000040181FF37C08091030190E02091050158
:1010E000309106018217930769F1609109017091AF
:1010F0000A0180910B0190910C0148810E94AE047D
:10110000FF24F3948091090190910A01A0910B01B1
:10111000B0910C010196A11DB11D8093090190931E
:101120000A01A0930B01B0930C01C017D10759F12C
:1011300020910F012196213009F4AECF68810E94E1
:101140002D05B7CFFF24F394DDCF20E04881BC010B
:10115000CD010E944D0480910301815080930301D1
:101160008111A7CF6091090170910A0180910B0153
:1011700090910C0148810E94AE04809105018093FA
:10118000030197CFF12C8F2DDF91CF911F910F91FC
:10119000FF900895462F682F8091090190910A01D0
:1011A0000E94BC058091090190910A01A0910B0158
:1011B000B0910C01810F911DA11DB11D80930901FA
:1011C00090930A01A0930B01B0930C018091070149
:1011D00090910801811B9109909308018093070168
:1011E000892B21F410920F0181E03CCF80E03ACFAF
:1011F0001BB815B88BEE8AB98FEF84B914B883E0A9
:1012000087B99EEF98B985BD0E94A80178940E9485
:081210007C00FDCFF894FFCF34
:02121800FF5A7B
:00000001FF
